{
  "_format": "hh-sol-artifact-1",
  "contractName": "wastelisting",
  "sourceName": "contracts/wastelisting.sol",
  "abi": [
    {
      "inputs": [],
      "stateMutability": "nonpayable",
      "type": "constructor"
    },
    {
      "anonymous": false,
      "inputs": [
        {
          "indexed": false,
          "internalType": "string",
          "name": "message",
          "type": "string"
        }
      ],
      "name": "Debug",
      "type": "event"
    },
    {
      "anonymous": false,
      "inputs": [
        {
          "indexed": false,
          "internalType": "string",
          "name": "wasteType",
          "type": "string"
        },
        {
          "indexed": false,
          "internalType": "uint256",
          "name": "quantity",
          "type": "uint256"
        },
        {
          "indexed": false,
          "internalType": "string",
          "name": "priceMode",
          "type": "string"
        },
        {
          "indexed": false,
          "internalType": "string",
          "name": "currency",
          "type": "string"
        },
        {
          "indexed": false,
          "internalType": "string",
          "name": "country",
          "type": "string"
        },
        {
          "indexed": false,
          "internalType": "string",
          "name": "state",
          "type": "string"
        },
        {
          "indexed": false,
          "internalType": "uint256",
          "name": "timestamp",
          "type": "uint256"
        },
        {
          "indexed": false,
          "internalType": "address",
          "name": "from",
          "type": "address"
        },
        {
          "indexed": false,
          "internalType": "uint256",
          "name": "fixedPrice",
          "type": "uint256"
        }
      ],
      "name": "ListingCreated",
      "type": "event"
    },
    {
      "inputs": [
        {
          "internalType": "string",
          "name": "_wasteType",
          "type": "string"
        },
        {
          "internalType": "uint256",
          "name": "_quantity",
          "type": "uint256"
        },
        {
          "internalType": "string",
          "name": "_priceMode",
          "type": "string"
        },
        {
          "internalType": "string",
          "name": "_currency",
          "type": "string"
        },
        {
          "internalType": "string",
          "name": "_country",
          "type": "string"
        },
        {
          "internalType": "string",
          "name": "_state",
          "type": "string"
        },
        {
          "internalType": "uint256",
          "name": "_fixedPrice",
          "type": "uint256"
        }
      ],
      "name": "createListing",
      "outputs": [],
      "stateMutability": "payable",
      "type": "function"
    },
    {
      "inputs": [],
      "name": "getListings",
      "outputs": [
        {
          "components": [
            {
              "internalType": "string",
              "name": "wasteType",
              "type": "string"
            },
            {
              "internalType": "uint256",
              "name": "quantity",
              "type": "uint256"
            },
            {
              "internalType": "string",
              "name": "priceMode",
              "type": "string"
            },
            {
              "internalType": "string",
              "name": "currency",
              "type": "string"
            },
            {
              "internalType": "string",
              "name": "country",
              "type": "string"
            },
            {
              "internalType": "string",
              "name": "state",
              "type": "string"
            },
            {
              "internalType": "uint256",
              "name": "timestamp",
              "type": "uint256"
            },
            {
              "internalType": "address",
              "name": "from",
              "type": "address"
            },
            {
              "internalType": "uint256",
              "name": "fixedPrice",
              "type": "uint256"
            }
          ],
          "internalType": "struct wastelisting.Listing[]",
          "name": "",
          "type": "tuple[]"
        }
      ],
      "stateMutability": "view",
      "type": "function"
    },
    {
      "inputs": [
        {
          "internalType": "uint256",
          "name": "",
          "type": "uint256"
        }
      ],
      "name": "listings",
      "outputs": [
        {
          "internalType": "string",
          "name": "wasteType",
          "type": "string"
        },
        {
          "internalType": "uint256",
          "name": "quantity",
          "type": "uint256"
        },
        {
          "internalType": "string",
          "name": "priceMode",
          "type": "string"
        },
        {
          "internalType": "string",
          "name": "currency",
          "type": "string"
        },
        {
          "internalType": "string",
          "name": "country",
          "type": "string"
        },
        {
          "internalType": "string",
          "name": "state",
          "type": "string"
        },
        {
          "internalType": "uint256",
          "name": "timestamp",
          "type": "uint256"
        },
        {
          "internalType": "address",
          "name": "from",
          "type": "address"
        },
        {
          "internalType": "uint256",
          "name": "fixedPrice",
          "type": "uint256"
        }
      ],
      "stateMutability": "view",
      "type": "function"
    }
  ],
  "bytecode": "0x608060405234801561001057600080fd5b5033600160006101000a81548173ffffffffffffffffffffffffffffffffffffffff021916908373ffffffffffffffffffffffffffffffffffffffff160217905550611786806100616000396000f3fe6080604052600436106100345760003560e01c8063ca6489e914610039578063de74e57b14610055578063f1b2d6a31461009a575b600080fd5b610053600480360381019061004e9190610d58565b6100c5565b005b34801561006157600080fd5b5061007c60048036038101906100779190610e86565b610492565b60405161009199989796959493929190610f82565b60405180910390f35b3480156100a657600080fd5b506100af6107b8565b6040516100bc919061123d565b60405180910390f35b60003411610108576040517f08c379a00000000000000000000000000000000000000000000000000000000081526004016100ff906112ab565b60405180910390fd5b600160009054906101000a900473ffffffffffffffffffffffffffffffffffffffff1673ffffffffffffffffffffffffffffffffffffffff166108fc349081150290604051600060405180830381858888f19350505050158015610170573d6000803e3d6000fd5b5060405160200161018090611322565b60405160208183030381529060405280519060200120856040516020016101a79190611368565b604051602081830303815290604052805190602001201480156101ca5750600081115b8061021e57506040516020016101df906113cb565b60405160208183030381529060405280519060200120856040516020016102069190611368565b60405160208183030381529060405280519060200120145b61025d576040517f08c379a000000000000000000000000000000000000000000000000000000000815260040161025490611452565b60405180910390fd5b60405160200161026c906113cb565b60405160208183030381529060405280519060200120856040516020016102939190611368565b60405160208183030381529060405280519060200120036102b357600090505b6102bb610b66565b87816000018190525086816020018181525050858160400181905250848160600181905250838160800181905250828160a00181905250428160c0018181525050338160e0019073ffffffffffffffffffffffffffffffffffffffff16908173ffffffffffffffffffffffffffffffffffffffff1681525050818161010001818152505060008190806001815401808255809150506001900390600052602060002090600902016000909190919091506000820151816000019081610380919061167e565b506020820151816001015560408201518160020190816103a0919061167e565b5060608201518160030190816103b6919061167e565b5060808201518160040190816103cc919061167e565b5060a08201518160050190816103e2919061167e565b5060c0820151816006015560e08201518160070160006101000a81548173ffffffffffffffffffffffffffffffffffffffff021916908373ffffffffffffffffffffffffffffffffffffffff160217905550610100820151816008015550507f037be98a6cb06bdc9853cbc137676389105529d6d5a974e2c9f449dfb9f1a17d88888888888842338a60405161048099989796959493929190610f82565b60405180910390a15050505050505050565b600081815481106104a257600080fd5b90600052602060002090600902016000915090508060000180546104c5906114a1565b80601f01602080910402602001604051908101604052809291908181526020018280546104f1906114a1565b801561053e5780601f106105135761010080835404028352916020019161053e565b820191906000526020600020905b81548152906001019060200180831161052157829003601f168201915b505050505090806001015490806002018054610559906114a1565b80601f0160208091040260200160405190810160405280929190818152602001828054610585906114a1565b80156105d25780601f106105a7576101008083540402835291602001916105d2565b820191906000526020600020905b8154815290600101906020018083116105b557829003601f168201915b5050505050908060030180546105e7906114a1565b80601f0160208091040260200160405190810160405280929190818152602001828054610613906114a1565b80156106605780601f1061063557610100808354040283529160200191610660565b820191906000526020600020905b81548152906001019060200180831161064357829003601f168201915b505050505090806004018054610675906114a1565b80601f01602080910402602001604051908101604052809291908181526020018280546106a1906114a1565b80156106ee5780601f106106c3576101008083540402835291602001916106ee565b820191906000526020600020905b8154815290600101906020018083116106d157829003601f168201915b505050505090806005018054610703906114a1565b80601f016020809104026020016040519081016040528092919081815260200182805461072f906114a1565b801561077c5780601f106107515761010080835404028352916020019161077c565b820191906000526020600020905b81548152906001019060200180831161075f57829003601f168201915b5050505050908060060154908060070160009054906101000a900473ffffffffffffffffffffffffffffffffffffffff16908060080154905089565b60606000805480602002602001604051908101604052809291908181526020016000905b82821015610b5d578382906000526020600020906009020160405180610120016040529081600082018054610810906114a1565b80601f016020809104026020016040519081016040528092919081815260200182805461083c906114a1565b80156108895780601f1061085e57610100808354040283529160200191610889565b820191906000526020600020905b81548152906001019060200180831161086c57829003601f168201915b50505050508152602001600182015481526020016002820180546108ac906114a1565b80601f01602080910402602001604051908101604052809291908181526020018280546108d8906114a1565b80156109255780601f106108fa57610100808354040283529160200191610925565b820191906000526020600020905b81548152906001019060200180831161090857829003601f168201915b5050505050815260200160038201805461093e906114a1565b80601f016020809104026020016040519081016040528092919081815260200182805461096a906114a1565b80156109b75780601f1061098c576101008083540402835291602001916109b7565b820191906000526020600020905b81548152906001019060200180831161099a57829003601f168201915b505050505081526020016004820180546109d0906114a1565b80601f01602080910402602001604051908101604052809291908181526020018280546109fc906114a1565b8015610a495780601f10610a1e57610100808354040283529160200191610a49565b820191906000526020600020905b815481529060010190602001808311610a2c57829003601f168201915b50505050508152602001600582018054610a62906114a1565b80601f0160208091040260200160405190810160405280929190818152602001828054610a8e906114a1565b8015610adb5780601f10610ab057610100808354040283529160200191610adb565b820191906000526020600020905b815481529060010190602001808311610abe57829003601f168201915b50505050508152602001600682015481526020016007820160009054906101000a900473ffffffffffffffffffffffffffffffffffffffff1673ffffffffffffffffffffffffffffffffffffffff1673ffffffffffffffffffffffffffffffffffffffff168152602001600882015481525050815260200190600101906107dc565b50505050905090565b60405180610120016040528060608152602001600081526020016060815260200160608152602001606081526020016060815260200160008152602001600073ffffffffffffffffffffffffffffffffffffffff168152602001600081525090565b6000604051905090565b600080fd5b600080fd5b600080fd5b600080fd5b6000601f19601f8301169050919050565b7f4e487b7100000000000000000000000000000000000000000000000000000000600052604160045260246000fd5b610c2f82610be6565b810181811067ffffffffffffffff82111715610c4e57610c4d610bf7565b5b80604052505050565b6000610c61610bc8565b9050610c6d8282610c26565b919050565b600067ffffffffffffffff821115610c8d57610c8c610bf7565b5b610c9682610be6565b9050602081019050919050565b82818337600083830152505050565b6000610cc5610cc084610c72565b610c57565b905082815260208101848484011115610ce157610ce0610be1565b5b610cec848285610ca3565b509392505050565b600082601f830112610d0957610d08610bdc565b5b8135610d19848260208601610cb2565b91505092915050565b6000819050919050565b610d3581610d22565b8114610d4057600080fd5b50565b600081359050610d5281610d2c565b92915050565b600080600080600080600060e0888a031215610d7757610d76610bd2565b5b600088013567ffffffffffffffff811115610d9557610d94610bd7565b5b610da18a828b01610cf4565b9750506020610db28a828b01610d43565b965050604088013567ffffffffffffffff811115610dd357610dd2610bd7565b5b610ddf8a828b01610cf4565b955050606088013567ffffffffffffffff811115610e0057610dff610bd7565b5b610e0c8a828b01610cf4565b945050608088013567ffffffffffffffff811115610e2d57610e2c610bd7565b5b610e398a828b01610cf4565b93505060a088013567ffffffffffffffff811115610e5a57610e59610bd7565b5b610e668a828b01610cf4565b92505060c0610e778a828b01610d43565b91505092959891949750929550565b600060208284031215610e9c57610e9b610bd2565b5b6000610eaa84828501610d43565b91505092915050565b600081519050919050565b600082825260208201905092915050565b60005b83811015610eed578082015181840152602081019050610ed2565b60008484015250505050565b6000610f0482610eb3565b610f0e8185610ebe565b9350610f1e818560208601610ecf565b610f2781610be6565b840191505092915050565b610f3b81610d22565b82525050565b600073ffffffffffffffffffffffffffffffffffffffff82169050919050565b6000610f6c82610f41565b9050919050565b610f7c81610f61565b82525050565b6000610120820190508181036000830152610f9d818c610ef9565b9050610fac602083018b610f32565b8181036040830152610fbe818a610ef9565b90508181036060830152610fd28189610ef9565b90508181036080830152610fe68188610ef9565b905081810360a0830152610ffa8187610ef9565b905061100960c0830186610f32565b61101660e0830185610f73565b611024610100830184610f32565b9a9950505050505050505050565b600081519050919050565b600082825260208201905092915050565b6000819050602082019050919050565b600082825260208201905092915050565b600061107a82610eb3565b611084818561105e565b9350611094818560208601610ecf565b61109d81610be6565b840191505092915050565b6110b181610d22565b82525050565b6110c081610f61565b82525050565b60006101208301600083015184820360008601526110e4828261106f565b91505060208301516110f960208601826110a8565b5060408301518482036040860152611111828261106f565b9150506060830151848203606086015261112b828261106f565b91505060808301518482036080860152611145828261106f565b91505060a083015184820360a086015261115f828261106f565b91505060c083015161117460c08601826110a8565b5060e083015161118760e08601826110b7565b5061010083015161119c6101008601826110a8565b508091505092915050565b60006111b383836110c6565b905092915050565b6000602082019050919050565b60006111d382611032565b6111dd818561103d565b9350836020820285016111ef8561104e565b8060005b8581101561122b578484038952815161120c85826111a7565b9450611217836111bb565b925060208a019950506001810190506111f3565b50829750879550505050505092915050565b6000602082019050818103600083015261125781846111c8565b905092915050565b7f506c6561736520706179206d6f7265207468616e203020657468657200000000600082015250565b6000611295601c83610ebe565b91506112a08261125f565b602082019050919050565b600060208201905081810360008301526112c481611288565b9050919050565b600081905092915050565b7f4669786564000000000000000000000000000000000000000000000000000000600082015250565b600061130c6005836112cb565b9150611317826112d6565b600582019050919050565b600061132d826112ff565b9150819050919050565b600061134282610eb3565b61134c81856112cb565b935061135c818560208601610ecf565b80840191505092915050565b60006113748284611337565b915081905092915050565b7f42696464696e6773000000000000000000000000000000000000000000000000600082015250565b60006113b56008836112cb565b91506113c08261137f565b600882019050919050565b60006113d6826113a8565b9150819050919050565b7f496e76616c6964207072696365206d6f6465206f72206669786564207072696360008201527f6520666f72207468652073656c6563746564207072696365206d6f6465000000602082015250565b600061143c603d83610ebe565b9150611447826113e0565b604082019050919050565b6000602082019050818103600083015261146b8161142f565b9050919050565b7f4e487b7100000000000000000000000000000000000000000000000000000000600052602260045260246000fd5b600060028204905060018216806114b957607f821691505b6020821081036114cc576114cb611472565b5b50919050565b60008190508160005260206000209050919050565b60006020601f8301049050919050565b600082821b905092915050565b6000600883026115347fffffffffffffffffffffffffffffffffffffffffffffffffffffffffffffffff826114f7565b61153e86836114f7565b95508019841693508086168417925050509392505050565b6000819050919050565b600061157b61157661157184610d22565b611556565b610d22565b9050919050565b6000819050919050565b61159583611560565b6115a96115a182611582565b848454611504565b825550505050565b600090565b6115be6115b1565b6115c981848461158c565b505050565b5b818110156115ed576115e26000826115b6565b6001810190506115cf565b5050565b601f82111561163257611603816114d2565b61160c846114e7565b8101602085101561161b578190505b61162f611627856114e7565b8301826115ce565b50505b505050565b600082821c905092915050565b600061165560001984600802611637565b1980831691505092915050565b600061166e8383611644565b9150826002028217905092915050565b61168782610eb3565b67ffffffffffffffff8111156116a05761169f610bf7565b5b6116aa82546114a1565b6116b58282856115f1565b600060209050601f8311600181146116e857600084156116d6578287015190505b6116e08582611662565b865550611748565b601f1984166116f6866114d2565b60005b8281101561171e578489015182556001820191506020850194506020810190506116f9565b8683101561173b5784890151611737601f891682611644565b8355505b6001600288020188555050505b50505050505056fea2646970667358221220bf2cd0122bd44cb92427e6f8f5fe0e5fbe9ed07c0fed46f5bd81c06e22f9cdc664736f6c63430008110033",
  "linkReferences": {},
  "deployedLinkReferences": {}
}